:020000040800F2
:1070000000000320758C00082B8B0008338B0008D0
:107010003B8B0008438B00084B8B000800000000EE
:10702000000000000000000000000000538B00087A
:10703000618B0008000000006F8B00087D8B00084A
:10704000CD8C0008CD8C0008CD8C0008898B000801
:10705000CD8C0008CD8C0008CD8C0008CD8C0008AC
:10706000CD8C0008CD8C0008CD8C0008CD8C00089C
:10707000CD8C0008CD8C0008CD8C0008CD8C00088C
:10708000CD8C0008CD8C0008CD8C0008CD8C00087C
:10709000CD8C0008CD8C0008CD8C0008CD8C00086C
:1070A000CD8C0008CD8C0008CD8C0008CD8C00085C
:1070B000CD8C0008CD8C0008CD8C0008CD8C00084C
:1070C000CD8C0008CD8C0008CD8C0008CD8C00083C
:1070D000CD8C0008CD8C0008CD8C0008CD8C00082C
:1070E000CD8C0008CD8C0008CD8C0008CD8C00081C
:1070F000958B0008A18B0008AD8B0008CD8C000893
:10710000CD8C0008CD8C0008CD8C0008CD8C0008FB
:10711000CD8C0008CD8C0008CD8C0008CD8C0008EB
:10712000CD8C0008CD8C0008CD8C0008CD8C0008DB
:0C713000CD8C0008CD8C0008CD8C000830
:04714000A0F10008B2
:1071440010B5054C237833B9044B13B10448AFF39D
:1071540000800123237010BD800000200000000087
:1071640010EF000808B5034B1BB103490348AFF304
:10717400008008BD000000008400002010EF00081B
:10718400034613F8012B002AFBD1181A0138704763
:10719400B0B588B000AF0B4B3C1D1D460FCD0FC4DE
:1071A40095E8070003C422800234130C237006F010
:1071B400FFFA3B1D184605F090FD00BF2037BD4681
:1071C400B0BD00BF28EF000880B483B000AF786082
:1071D400074BD3F8803023F0070205497B6813433B
:1071E400C1F8803000BF0C37BD465DF8047B7047A2
:1071F4000004005880B483B000AF7860064BD3F825
:10720400902005497B681343C1F8903000BF0C37C8
:10721400BD465DF8047B70470008005880B483B015
:1072240000AF78604FF0B0430A4AC3F89C204FF097
:10723400B043D3F89C3023F47C527B681B024FF09C
:10724400B0411343C1F89C3000BF0C37BD465DF814
:10725400047B7047FECAFECA80B483B000AF786076
:107264004FF0B0439B6823F400424FF0B0417B6879
:1072740013438B6000BF0C37BD465DF8047B704739
:1072840080B400AF4FF0B043D3F890304FF0B04229
:1072940043F48033C2F8903000BFBD465DF8047BF0
:1072A400704780B400AF4FF0B043D3F890304FF044
:1072B400B04223F48033C2F8903000BFBD465DF87D
:1072C400047B704780B400AF4FF0B043D3F89430E0
:1072D40003F08063B3F1806F01D1012300E0002348
:1072E4001846BD465DF8047B704780B400AF4FF08C
:1072F400B043D3F8943003F08053B3F1805F01D1ED
:10730400012300E000231846BD465DF8047B704766
:1073140080B485B000AF78604FF0B0431A6D4FF081
:10732400B0417B6813430B654FF0B0431A6D7B6823
:107334001340FB60FB6800BF1437BD465DF8047B57
:107344007047000080B400AF044B1B68C3F30B0309
:107354001846BD465DF8047B704700BF002004E07A
:1073640080B400AF044B1B681B0C9BB21846BD468F
:107374005DF8047B704700BF002004E080B483B054
:1073840000AF786039607B685A683B681B041A4315
:107394007B685A6000BF0C37BD465DF8047B7047BC
:1073A40080B483B000AF786039607B685A683B680A
:1073B4001A437B685A6000BF0C37BD465DF8047BF6
:1073C400704780B483B000AF786039607B685A69D5
:1073D4003B681B041A437B685A6100BF0C37BD46E7
:1073E4005DF8047B704780B483B000AF7860396087
:1073F4007B685A693B681A437B685A6100BF0C3743
:10740400BD465DF8047B704780B483B000AF7860FC
:1074140039607B683A689A6000BF0C37BD465DF8F6
:10742400047B704780B483B000AF786039607B68B8
:107434003A689A6100BF0C37BD465DF8047B70471B
:1074440080B483B000AF78607B68FF225A6200BFCB
:107454000C37BD465DF8047B704780B483B000AF41
:1074640078607B68CA225A627B6853225A6200BFE2
:107474000C37BD465DF8047B704780B483B000AF21
:10748400786039607B689B6823F007023B681A4385
:107494007B689A6000BF0C37BD465DF8047B70477B
:1074A40080B500AF044B4FF400421A6100F024F899
:1074B40000F064F800BF80BD0040005880B500AF04
:1074C40000F070F800F088F80349002000F016FE80
:1074D40000F090F800BF80BDCC01002080B400AF64
:1074E40000BFBD465DF8047B704780B500AF5020F7
:1074F400FFF780FE00BF80BD80B500AF00F004F848
:1075040000F01AF800BF80BD80B500AFFFF7DAFEC7
:107514000346002B0DD0FFF7E8FE0346002B08D1ED
:1075240002F058F902F056F9FFF7AAFEFFF7B9FE88
:1075340000BF00BF80BD000080B500AF4FF48010D5
:10754400FFF7E6FE3F210C48FFF75EFF3F210A48A4
:10755400FFF768FF3F210848FFF710FF3F21064867
:10756400FFF72FFF3F210448FFF71AFF3F2102488E
:10757400FFF739FF00BF80BD000C005880B582B012
:1075840000AF002006F0A0F978607B68002B05D0DE
:107594007B689B791846FFF741FE00BF00BF0837A0
:1075A400BD4680BD80B500AFFFF798FFFFF79DFF94
:1075B40000F002F800BF80BD80B500AF0548FFF7BA
:1075C4004CFF00210348FFF758FF0248FFF738FF3C
:1075D40000BF80BD0028004080B500AF4FF40040DC
:1075E400FFF73AFE07F0EEF90420FFF7EDFD00BFC8
:1075F40080BD000080B588B000AF05F023FF114ABC
:107604000021082007F01CFB0F4B3B600F4B7B60F5
:107614003B4619460E4805F0D7FD0E4BBB600E4B9A
:10762400FB600E4B3B6140F23C537B6107F1080366
:10763400184606F049F805F0FFFE00BF2037BD46A6
:1076440080BD00BF05D2000834070320657600081A
:107654007D7600084C09032040080320F80103202C
:1076640080B483B000AF0346FB7100BF0C37BD4646
:107674005DF8047B7047000080B588B000AF786087
:107684007B685B680B33FB61FB691B889BB2A3F5CA
:107694001243072B1FD801A252F823F0C176000829
:1076A400D3760008DB760008DB760008DB7600087A
:1076B400DB760008DB760008DB76000807F10C03B4
:1076C400184605F037FB786800F01BF804E078688A
:1076D40000F006F800E000BF00BF2037BD4680BDC3
:1076E40080B485B000AF78607B685B680B33FB6067
:1076F400FB680233BB6000BF1437BD465DF8047BF2
:10770400704780B58AB000AF786007F108030022A3
:107714001A605A609A60DA6000237B6200233B623D
:107724007B685B680B33FB61FB690233BB61BB693C
:107734001B78002B1DD1FFF72BFD0F233B727F23FA
:10774400BB72FFF70DFE78627B6A9BB2BB82FFF7C8
:10775400F9FD38623B6A9BB2FB8207F108031846C5
:1077640005F0D2FA06F0BAF90021012007F03CF93D
:1077740007E0BB691B78012B03D17B6800221A70D8
:1077840000BF00BF2837BD4680BD80B500AF4FF0B5
:10779400FF3007F059F900BF80BD80B400AF00BFCF
:1077A400BD465DF8047B704780B582B000AF786059
:1077B4000021082007F066FA00BF0837BD4680BDE7
:1077C40080B582B000AF7860022007F0C7FA00BF2E
:1077D4000837BD4680BD80B582B000AF7860022016
:1077E40007F0DCFA00BF0837BD4680BD80B485B021
:1077F40000AF78604FF0B043DA6C4FF0B0417B6873
:107804001343CB644FF0B043DA6C7B681340FB60E6
:10781400FB6800BF1437BD465DF8047B7047000069
:1078240080B586B000AF3B1D00221A605A609A6092
:10783400DA601A610420FFF7D9FF0220FFF7D6FFB0
:107844000120FFF7D3FF002240F21F114FF09040B8
:1078540001F0CCFD0022C0211D4801F0C7FD40F21B
:107864001F137B600123BB600023FB6000233B618B
:107874003B1D19464FF0904001F048FC4FF4C063A3
:107884007B600023BB600023FB603B1D19464FF067
:10789400904001F03BFC04237B600023BB60002389
:1078A400FB603B1D19460A4801F030FCC0237B6095
:1078B4000123BB600023FB6000233B613B1D194691
:1078C400034801F023FC00BF1837BD4680BD00BF4C
:1078D4000004004880B483B000AF7860064BD3F84E
:1078E400802005497B681343C1F8803000BF0C3702
:1078F400BD465DF8047B70470008005880B483B02F
:1079040000AF7860054B1A6804497B6813430B6029
:1079140000BF0C37BD465DF8047B70470008005873
:1079240080B483B000AF0D4B9B6A9BB27B600B4B62
:107934009B6A9BB23B6005E03B687B60074B9B6A9C
:107944009BB23B607A683B689A42F5D13B68184623
:107954000C37BD465DF8047B704700BF002800402B
:1079640080B485B000AF03460A46FB711346BB7171
:10797400BA791D4913465B001344DB000B441533ED
:107984001B78FB73FB7B062B09D0FA7B1649134645
:107994005B001344DB000B441433FA791A70FA7950
:1079A400114913465B001344DB000B441533FA7B87
:1079B4001A70FA790C4913465B001344DB000B443C
:1079C4001433BA791A70BA79074913465B00134421
:1079D400DB000B441533FA791A7000BF1437BD4627
:1079E4005DF8047B704700BF9C00002080B485B024
:1079F40000AF03460A46FB711346BB71294B1B7843
:107A0400DBB2BA799A4232D0BA79274913465B007D
:107A14001344DB000B4414331B78FB73FA7B2249B9
:107A240013465B001344DB000B441533FA791A70D8
:107A3400FA791D4913465B001344DB000B441533EC
:107A4400BA791A70FA79184913465B001344DB00BB
:107A54000B441433FA7B1A70BA79134913465B004A
:107A64001344DB000B441433FA791A7014E0FA79E6
:107A74000D4913465B001344DB000B441533BA79FC
:107A84001A70BA79084913465B001344DB000B44AF
:107A94001433FA791A7000BF1437BD465DF8047BBD
:107AA400704700BF2C0100209C00002080B584B0EA
:107AB40000AF0346FB714E4B1B78DBB2062B18D18B
:107AC4004B4B1B78DAB24B4B1A70494AFB79137053
:107AD400FA79494913465B001344DB000B44153320
:107AE40006221A70454B4FF0FF321A600023FB81C7
:107AF40078E000F009F90346FB81FA793E49134620
:107B04005B001344DB000B4408331968FB89FA79E2
:107B14001944394813465B001344DB00034408331B
:107B24001960FA79344913465B001344DB000B44B3
:107B340008331B68BB602E4B1B78DBB219462E4AF8
:107B44000B465B000B44DB00134408331B68BA6824
:107B54009A4237D3264B1B787B737A7B264913468C
:107B64005B001344DB000B4415331B783B7313E0B9
:107B74007A7B214913465B001344DB000B44153325
:107B84001B787B737A7B1C4913465B001344DB0030
:107B94000B4415331B783B733B7B062B0BD03A7B92
:107BA400154913465B001344DB000B4408331B6880
:107BB400BA689A42DCD27A7BFB7911461846FFF701
:107BC400CFFE0FE00A4B1B78DAB2FB791146184658
:107BD400FFF70CFF064B1B78DAB2064B1A70044A07
:107BE400FB791370FB8918461037BD4680BD00BF72
:107BF4002C0100202D0100209C00002030010020D9
:107C040080B485B000AF03460A46FB711346BB71CE
:107C1400394B1B78DBB2FA799A4211D1364B1B7877
:107C2400DAB2364B1A70FA79354913465B001344BD
:107C3400DB000B4415331B78DAB22F4B1A703EE08D
:107C4400FA792F4913465B001344DB000B441433C9
:107C54001B78FB73FA792A4913465B001344DB0053
:107C64000B4415331B78BB73F979FA7B24480B4614
:107C74005B000B44DB00034415331B78D8B2204966
:107C840013465B001344DB000B44153302461A70A1
:107C9400BB7B062B13D0F979BA7B19480B465B00E2
:107CA4000B44DB00034414331B78D8B21449134645
:107CB4005B001344DB000B44143302461A70FA7958
:107CC4000F4913465B001344DB000B440C330122C1
:107CD4001A70094B1B78DBB2062B07D1BB79002B3A
:107CE40004D1084B4FF0FF321A6000BF00BF1437B5
:107CF400BD465DF8047B70472C0100202D01002057
:107D04009C0000203001002080B582B000AF1A4BE7
:107D14001B68B3F1FF3F26D0FFF702FE7860164BD5
:107D24001B687A689A4205D8134B1A687B68D31A81
:107D34007B600AE0114B1B881A467B68D31A3B60B0
:107D44000D4B1B683A6813447B600D4B1B781A4635
:107D54007B6802FB03F37B600A4B1B781A467B6843
:107D6400D3407B6001E000237B607B689BB21846B4
:107D74000837BD4680BD00BF300100203801002017
:107D8400360100203501002080B582B000AF0346E3
:107D9400FB80FB88002B08D1FFF7C2FD0346214A74
:107DA4001360032001F095F939E0FB88012B03D817
:107DB4001D4B1B78012B02D0FB88013BFB8000BFCD
:107DC4001A4B1B68DB6803F00403002BF8D0174B35
:107DD4001B68DB68DAB2154B1B6862F49062DA60E8
:107DE400134B4FF40022DA60032001F080F9114BA9
:107DF4005B691B0C1B04FA880E4913434B61FFF7A4
:107E04008FFD0346074A1360084B1B689A68074BAB
:107E14001B6842F480629A60AFF3008000BF0837A9
:107E2400BD4680BD3001002035010020CC0100207A
:107E3400000800580028004080B584B000AF454BCE
:107E44009B6803F48063B3F5806F07D100BF424B96
:107E54001B68DB6803F00403002BF8D13E4B1B685E
:107E64009A683D4B1B6822F480629A603B4B1B78F6
:107E7400FB73FA7B3A4913465B001344DB000B4463
:107E840008331B68BB60FFF73FFF0346FB80FB889A
:107E9400BA689A4205D20023BB81324B01221A7080
:107EA4004DE0FB88304A128892B213441A46BB68EC
:107EB400934206D92C4B1B88BB812A4B00221A7093
:107EC4003DE0BB689AB2FB88D31ABB81254B0122E3
:107ED4001A7034E0FA7B224913465B001344DB003A
:107EE4000B4408331A68FB889A420AD2FA7B1C496D
:107EF40013465B001344DB000B44083300221A6072
:107F040013E0FA7B164913465B001344DB000B4471
:107F140008331968FB88FA7BC91A114813465B00B9
:107F24001344DB00034408331960FA7B0C491346FD
:107F34005B001344DB000B4415331B78FB73FB7BA2
:107F4400062BC7D1BB891846FFF71EFF00BF1037A9
:107F5400BD4680BD00280040CC0100202C0100203B
:107F64009C000020340100203A01002080B58AB032
:107F740000AFEFF310837B617B697B6272B600BF55
:107F8400594B1B68CA225A62574B1B6853225A62C8
:107F9400554B1B689A68544B1B6822F480629A60A4
:107FA400524B1B7887F8233097F823205049134607
:107FB4005B001344DB000B440C331B78DBB2022B55
:107FC4006ED197F823204A4913465B001344DB0023
:107FD4000B441B68FB6197F82320454913465B005B
:107FE4001344DB000B4410331B68BB61414B1B780B
:107FF400DBB2002B4CD097F823203D4913465B009D
:108004001344DB000B440D331B78DBB2012B24D16A
:1080140097F8233001211846FFF7F2FD7B6A3B6194
:108024003B6983F3108800BF97F823203049134637
:108034005B001344DB000B4404331A6897F82330C5
:108044001146184600F0B8F9274B1B68CA225A6239
:10805400254B1B6853225A6212E07B6AFB60FB6863
:1080640083F3108800BF97F82330184600F020F9F6
:108074001D4B1B68CA225A621B4B1B6853225A624F
:1080840097F82330FA691946B86900F01BFA22E020
:10809400FFF7D2FE7B6ABB60BB6883F310881AE0EB
:1080A40000BF114B1B68DB6803F00403002BF8D0FE
:1080B4000D4B1B68DB68DAB20B4B1B6862F49062F1
:1080C400DA600D4B4FF40022DA607B6A7B607B68D8
:1080D40083F3108800BF044B1B68FF225A6200BF61
:1080E4002837BD4680BD00BFCC0100202C010020F4
:1080F4009C000020340100200008005880B588B09E
:1081040000AF03463960FB715E4B1B68CA225A629A
:108114005C4B1B6853225A625B4B9B685A4A43F080
:1081240020039360584B9B68DBB203F00703DBB278
:10813400C3F10403DAB2554B1A70534B1B6903F4B1
:10814400FE034FF4FE023A613A6992FAA2F2FA602F
:10815400FA687A617A69002A01D1202203E07A69F7
:10816400B2FA82F2D2B2D340DBB20133DAB2484B74
:108174001A70454B1B699BB2C3F30E039BB20133C8
:108184009AB2444B1A80434B1B88013B404A1278F5
:1081940002FB03F3A3F5A0733C4A1278D340BB61FE
:1081A400BB694FF6FE72934204D93B4B4FF6FF7204
:1081B4001A8003E0BB699AB2374B1A804FF400204F
:1081C400FFF79CFB4FF40020FFF784FBFB79002BA7
:1081D4003DD1324B01221A70314B4FF0FF321A60FD
:1081E4000023FB770CE0FA7F2E4913465B0013440F
:1081F400DB000B440C3300221A70FB7F0133FB7746
:10820400FB7F052BEFD9284B06221A701D4B1B68E8
:108214009A681C4B1B6822F480629A60194B1B6895
:10822400DB68DAB2174B1B6862F49062DA601F4BAA
:108234004FF40022DA60032000F059FF114B1B6851
:108244009A68104B1B6842F480429A6009E00D4B17
:108254001B68DB6803F48063002B02D0032000F06A
:1082640038FF084B1B68FF225A62002203210320B7
:1082740000F0EDFE032000F004FF00BF2037BD46F0
:1082840080BD00BFCC010020002800403501002043
:1082940036010020380100203A010020340100207A
:1082A400300100209C0000202C0100200008005810
:1082B40080B586B000AF0346FB71EFF31083FB601B
:1082C400FB687B6172B600BF032000F0E8FE344B0C
:1082D4001B68CA225A62324B1B6853225A62FA79CB
:1082E400304913465B001344DB000B440C331B780A
:1082F400DBB2022B42D1FB7900211846FFF780FC48
:10830400294B1B78FB74FB7C062B2FD1274B9B68D6
:1083140003F48063B3F5806F07D100BF204B1B6863
:10832400DB6803F00403002BF8D11D4B1B689A682B
:108334001B4B1B6822F480629A6000BF184B1B68B9
:10834400DB6803F00403002BF8D0154B1B68DB68D3
:10835400DAB2134B1B6862F49062DA60144B4FF488
:108364000022DA60032000F0C2FE07E0114B1B7804
:10837400DBB2FA7C9A4201D0FFF75EFD084B1B6822
:10838400FF225A62032000F07CFE7B69BB60BB685D
:1083940083F3108800BF00BF1837BD4680BD00BFFF
:1083A400CC0100209C0000202C010020002800406B
:1083B400000800582D01002080B586B000AF0346A8
:1083C4003960FB71FA793B4913465B001344DB00C7
:1083D4000B440C331B78DBB2022B03D1FB79184618
:1083E400FFF766FFEFF31083FB60FB687B6172B6F7
:1083F40000BF032000F053FE2F4B1B68CA225A62B1
:108404002D4B1B6853225A62FA792A4913465B00A2
:108414001344DB000B440C3302221A70FA79254909
:1084240013465B001344DB000B4408333A681A60BC
:10843400FA79204913465B001344DB000B440433F0
:108444003A681A60FB791846FFF730FB03467B82D3
:108454001A4B1B787B741A4B1B78DBB27A7C9A42DA
:1084640002D0FFF7E9FC13E0FA79124913465B00E6
:108474001344DB000B44083319687B8AFA79C91A60
:108484000C4813465B001344DB00034408331960B3
:10849400094B1B68FF225A62032000F0F2FD7B693E
:1084A400BB60BB6883F3108800BF00BF1837BD46AC
:1084B40080BD00BF9C000020CC0100202C010020C6
:1084C4002D01002080B584B000AFF8600B467A60BF
:1084D400FB727B68984700BF1037BD4680BD80B4EF
:1084E40085B000AF78604FF0B043DA6C4FF0B04124
:1084F4007B681343CB644FF0B043DA6C7B68134062
:10850400FB60FB6800BF1437BD465DF8047B704711
:1085140080B485B000AF78604FF0B0439A6D4FF0EF
:10852400B0417B6813438B654FF0B0439A6D7B6811
:108534001340FB60FB6800BF1437BD465DF8047B45
:108544007047000080B500AF1B4B1C4A1A601A4BE1
:108554001B4A5A60184B00229A60174B0122DA60BA
:10856400154B00221A61144B00225A61124B00224F
:108574009A61114B0022DA610F4B00221A620E48F5
:1085840000F070FF0346002B01D000F063F90021D6
:10859400094801F002F80346002B01D000F05AF913
:1085A4000021054801F044F80346002B01D000F0F7
:1085B40051F900BF80BD00BF3C01002000540040C1
:1085C400B47CB00080B59CB000AF786007F15C0368
:1085D40000221A605A609A60DA601A6107F10C038B
:1085E40050220021184606F057FC7B681B68174A86
:1085F400934226D10423FB604FF44033FB6207F11E
:108604000C03184602F0E7FB0346002B01D000F0F0
:1086140021F90220FFF763FF4FF44073FB65122337
:108624003B6600237B660023BB660423FB6607F1DD
:108634005C031946064800F069FD4FF40010FFF78B
:1086440067FF00BF7037BD4680BD00BF00540040C7
:108654000004004880B485B000AF78604FF0B043A8
:108664001A6D4FF0B0417B6813430B654FF0B04374
:108674001A6D7B681340FB60FB6800BF1437BD466E
:108684005DF8047B7047000080B500AF064B074AD5
:108694001A60054801F018F80346002B01D000F0D9
:1086A400D9F800BF80BD00BF90010020000C005825
:1086B40080B582B000AF78607B681B680D4A934236
:1086C40013D14FF48010FFF7C5FF002200212C20A6
:1086D40000F0BDFC2C2000F0D4FC002200212D2051
:1086E40000F0B5FC2D2000F0CCFC00BF0837BD46DF
:1086F40080BD00BF000C005880B483B000AF786028
:108704004FF0B043D3F8903023F018024FF0B0414B
:108714007B681343C1F8903000BF0C37BD465DF849
:10872400047B704780B590B000AF00F0CFFAFEF73D
:10873400B7FE00F013F800F06DF8FFF7A5FFFFF7A0
:108744006FF8FFF7FFFE00F0BDF800F055F900F0F8
:1087540087F8FEF7B3FEFFF718F8FCE780B59AB088
:1087640000AF07F1200348220021184606F094FBCD
:108774003B1D00221A605A609A60DA601A615A61DD
:108784009A6101F027F81020FFF7B6FF204B1B6811
:1087940023F4C0631E4A43F4007313601C4B1B682C
:1087A40003F4C0633B603B6807233B624FF48033B0
:1087B4007B620123BB624FF48073FB6240233B6303
:1087C4000023FB6407F12003184601F07FFB0346F6
:1087D400002B01D000F03EF86F237B600223BB60C6
:1087E4000023FB6000233B6100237B610023BB610A
:1087F4000023FB613B1D0121184601F0DBFE03460B
:10880400002B01D000F026F800BF6837BD4680BDBC
:108814000004005880B594B000AF3B4650220021BC
:10882400184606F039FB4FF440533B604FF4804345
:108834007B640223BB641023FB643B46184602F0AE
:10884400CAFA0346002B01D000F004F800BF5037E9
:10885400BD4680BD80B400AF72B600BF00BFFDE767
:1088640080B400AF00BFBD465DF8047B704780B4A0
:1088740000AF4FF0B043D3F890304FF0B04243F420
:108884000043C2F8903000BFBD465DF8047B7047DA
:1088940080B485B000AF78604FF0B0439A6D4FF06C
:1088A400B0417B6813438B654FF0B0439A6D7B688E
:1088B4001340FB60FB6800BF1437BD465DF8047BC2
:1088C4007047000080B500AF164B174A1A60154B6D
:1088D40000225A60134B0F229A60124B47F6FF7224
:1088E400DA60104B00221A610E4B00229A610D4B84
:1088F4000022DA610B4B00225A610A4802F0F2FCB2
:108904000346002B01D0FFF7A5FF002200210548F4
:1089140002F0F6FD0346002B01D0FFF79BFF00BFDA
:1089240080BD00BFCC0100200028004080B596B077
:1089340000AF786007F1080350220021184606F0C2
:10894400ABFA7B681B68124A93421DD14FF4006353
:10895400BB604FF48073BB6407F10803184602F050
:108964003AFA0346002B01D0FFF774FFFFF77FFFAD
:108974004FF48060FFF78CFF00220021032000F0F9
:1089840066FB032000F07DFB00BF5837BD4680BD69
:108994000028004080B485B000AF78604FF0B04349
:1089A400DA6C4FF0B0417B681343CB644FF0B043B3
:1089B400DA6C7B681340FB60FB6800BF1437BD466C
:1089C4005DF8047B704780B485B000AF78604FF0E9
:1089D400B0431A6E4FF0B0417B6813430B664FF0FF
:1089E400B0431A6E7B681340FB60FB6800BF14370A
:1089F400BD465DF8047B704780B500AF1B4B1C4A35
:108A04001A601A4B4FF482725A60184B00229A6013
:108A1400164B4FF4E062DA60144B00221A61134BD8
:108A240001225A61114B4FF400729A610F4B2022BC
:108A3400DA610E4B00221A620C4B00225A620B4B75
:108A440000229A62094B0722DA62084B00221A6359
:108A5400064B00225A63054802F01EFE0346002B13
:108A640001D0FFF7F7FE00BF80BD00BFF00100207A
:108A74000030014080B588B000AF786007F10C0386
:108A840000221A605A609A60DA601A617B681B6877
:108A94000F4A934217D14FF48050FFF794FF0120FF
:108AA400FFF778FFE023FB6002233B6100237B6137
:108AB4000023BB610523FB6107F10C0319464FF04A
:108AC400904000F023FB00BF2037BD4680BD00BFAF
:108AD4000030014080B485B000AF78604FF0B043FF
:108AE4001A6D4FF0B0417B6813430B654FF0B043F0
:108AF4001A6D7B681340FB60FB6800BF1437BD46EA
:108B04005DF8047B704780B500AF4FF40020FFF799
:108B1400E1FF002200212E2000F099FA2E2000F01F
:108B2400B0FA00BF80BD80B400AF00BFFDE780B4E1
:108B340000AF00BFFDE780B400AF00BFFDE780B425
:108B440000AF00BFFDE780B400AF00BFFDE780B415
:108B540000AF00BFBD465DF8047B704780B400AF32
:108B640000BFBD465DF8047B704780B400AF00BF12
:108B7400BD465DF8047B704780B500AF00F000F996
:108B840000BF80BD80B500AFFFF7F0F900BF80BD26
:108B940080B500AF05F05CFD00BF80BD80B500AFBF
:108BA40005F08CFD00BF80BD80B500AF00F036FC41
:108BB40000BF80BD80B400AF244BD3F88830234A73
:108BC40043F47003C2F888304FF0B0431B684FF091
:108BD400B04243F0010313604FF0B0434FF4E0227E
:108BE4009A604FF0B0431A684FF0B041184B1340ED
:108BF4000B604FF0B043D3F894304FF0B04223F001
:108C04000503C2F894304FF0B043D3F898304FF0D6
:108C1400B04223F00103C2F898304FF0B0430D4A3C
:108C2400DA604FF0B0430B4A1A614FF0B0431B684F
:108C34004FF0B04223F4802313604FF0B04300227E
:108C44009A6100BFBD465DF8047B704700ED00E00B
:108C5400FBFEF6FA00100422D458C4500433C4189E
:108C64008C42F9D37047036004308842FBD37047C9
:108C74000C488546FFF79EFF0B480C490C4A00231D
:108C8400FFF7EDFF0B480C490C4A0023FFF7E7FF01
:108C94000B480C490023FFF7E8FF06F005F9FFF73E
:108CA40041FDFEE7000003200800002034000020FE
:108CB400A4F10008E4010320670A032016F2000867
:108CC4008000002008040020FEE7000080B582B088
:108CD40000AF0023FB710C4B1B680B4A43F48073F9
:108CE4001360032000F0A8F90F2000F00FF80346EA
:108CF400002B02D00123FB7101E0FFF704FFFB7995
:108D040018460837BD4680BD0040005880B584B081
:108D140000AF78600023FB73174B1B78002B24D023
:108D240001F0F4FD0246144B1B7819464FF47A7394
:108D3400B3FBF1F3B2FBF3F3184600F0BEF90346BC
:108D4400002B0FD17B680F2B09D8002279684FF0D4
:108D5400FF3000F07CF9094A7B68136007E00123C7
:108D6400FB7304E00123FB7301E00123FB73FB7B32
:108D740018461037BD4680BD100000200C000020AE
:108D840080B400AF064B1B781A46064B1B6813448D
:108D9400044A136000BFBD465DF8047B704700BF02
:108DA400100000205402002080B400AF034B1B6865
:108DB4001846BD465DF8047B704700BF540200208E
:108DC40080B400AF034B1B681846BD465DF8047BB6
:108DD400704700BF0C00002080B485B000AF7860FD
:108DE4007B6803F00703FB600C4BDB68BB60BA686D
:108DF4004FF6FF031340BB60FB681A02BB681343C2
:108E040043F0BF6343F40033BB60044ABB68D360E0
:108E140000BF1437BD465DF8047B704700ED00E0E9
:108E240080B400AF044BDB681B0A03F00703184649
:108E3400BD465DF8047B704700ED00E080B483B06C
:108E440000AF0346FB7197F90730002B0BDBFB796E
:108E540003F01F02074997F907305B09012000FA64
:108E640002F241F8232000BF0C37BD465DF8047BB5
:108E7400704700BF00E100E080B483B000AF034658
:108E8400FB7197F90730002B12DBFB7903F01F020B
:108E94000A4997F907305B09012000FA02F22033EE
:108EA40041F82320BFF34F8F00BFBFF36F8F00BF84
:108EB40000BF0C37BD465DF8047B704700E100E05D
:108EC40080B483B000AF0346FB7197F90730002BE1
:108ED4000CDBFB7903F01F02074997F907305B09A4
:108EE400012000FA02F2403341F8232000BF0C377E
:108EF400BD465DF8047B704700E100E080B483B0B8
:108F040000AF0346FB7197F90730002B0CDBFB79AC
:108F140003F01F02074997F907305B09012000FAA3
:108F240002F2603341F8232000BF0C37BD465DF8E0
:108F3400047B704700E100E080B483B000AF0346D7
:108F44003960FB7197F90730002B0ADB3B68DAB212
:108F54000C4997F907301201D2B20B4483F800236D
:108F64000AE03B68DAB20849FB7903F00F03043BDB
:108F74001201D2B20B441A7600BF0C37BD465DF81D
:108F8400047B704700E100E000ED00E080B489B0AC
:108F940000AFF860B9607A60FB6803F00703FB6117
:108FA400FB69C3F10703042B28BF0423BB61FB69DE
:108FB4000433062B02D9FB69033B00E000237B61E9
:108FC4004FF0FF32BB6902FA03F3DA43BB681A407D
:108FD4007B699A404FF0FF317B6901FA03F3D9436F
:108FE4007B680B40134318462437BD465DF8047B69
:108FF4007047000080B582B000AF78607B68013BA9
:10900400B3F1807F01D301230FE00A4A7B68013B5F
:1090140053600F214FF0FF30FFF78EFF054B002206
:109024009A60044B07221A60002318460837BD468D
:1090340080BD00BF10E000E080B582B000AF786072
:109044007868FFF7C9FE00BF0837BD4680BD80B50C
:1090540086B000AF0346B9607A60FB73FFF7E0FEA9
:1090640078617A68B9687869FFF790FF024697F9E2
:109074000F3011461846FFF75FFF00BF1837BD4693
:1090840080BD80B582B000AF0346FB7197F907300D
:109094001846FFF7D3FE00BF0837BD4680BD80B534
:1090A40082B000AF0346FB7197F907301846FFF70B
:1090B400E3FE00BF0837BD4680BD80B582B000AF77
:1090C40078607868FFF796FF034618460837BD4670
:1090D40080BD80B582B000AF0346FB7197F90730BD
:1090E4001846FFF7EDFE00BF0837BD4680BD80B5CA
:1090F40082B000AF0346FB7197F907301846FFF7BB
:10910400FDFE00BF0837BD4680BD000080B487B0B7
:1091140000AF7860396000237B614CE13B681A68DA
:1091240001217B6901FA03F31340FB60FB68002B08
:1091340000F03E813B685B6803F00303012B05D01C
:109144003B685B6803F00303022B30D17B689B68A8
:109154003B617B695B00032202FA03F3DB433A6958
:1091640013403B613B68DA687B695B0002FA03F3F6
:109174003A6913433B617B683A699A607B685B6830
:109184003B6101227B6902FA03F3DB433A69134032
:109194003B613B685B681B0903F001027B6902FACF
:1091A40003F33A6913433B617B683A695A603B684D
:1091B4005B6803F00303032B17D07B68DB683B6118
:1091C4007B695B00032202FA03F3DB433A69134031
:1091D4003B613B689A687B695B0002FA03F33A6976
:1091E40013433B617B683A69DA603B685B6803F070
:1091F4000303022B23D17B69DA087B68083253F816
:1092040022303B617B6903F007039B000F2202FAC3
:1092140003F3DB433A6913403B613B681A697B699A
:1092240003F007039B0002FA03F33A6913433B611B
:109234007B69DA087B680832396943F822107B6855
:109244001B683B617B695B00032202FA03F3DB4387
:109254003A6913403B613B685B6803F003027B6936
:109264005B0002FA03F33A6913433B617B683A6992
:109274001A603B685B6803F44033002B00F098806D
:10928400544A7B699B08023352F823303B617B6963
:1092940003F003039B000F2202FA03F3DB433A6952
:1092A40013403B617B68B3F1904F19D07B684A4A05
:1092B400934213D07B68494A93420DD07B68484A55
:1092C400934207D07B68474A934201D1042308E0C4
:1092D400072306E0032304E0022302E0012300E065
:1092E40000237A6902F00302920093403A6913431F
:1092F4003B6138497B699B0802333A6941F8232072
:10930400394B1B683B61FB68DB433A6913403B61A3
:109314003B685B6803F48013002B03D03A69FB6855
:1093240013433B61304A3B6913602F4B5B683B61DD
:10933400FB68DB433A6913403B613B685B6803F4B9
:109344000013002B03D03A69FB6813433B61264AA0
:109354003B695360244BD3F880303B61FB68DB43AB
:109364003A6913403B613B685B6803F48033002B2C
:1093740003D03A69FB6813433B611B4A3B69C2F85B
:109384008030194BD3F884303B61FB68DB433A6986
:1093940013403B613B685B6803F40033002B03D04C
:1093A4003A69FB6813433B610F4A3B69C2F8843056
:1093B4007B6901337B613B681A687B6922FA03F39A
:1093C400002B7FF4ABAE00BF00BF1C37BD465DF879
:1093D400047B704700000140000400480008004876
:1093E400000C0048001000480008005880B483B006
:1093F40000AF78600B467B8013467B707B78002B34
:1094040003D07A887B689A6102E07A887B689A62E2
:1094140000BF0C37BD465DF8047B704780B582B051
:1094240000AF0A4BDB687B60084B1A687B68DB4340
:10943400064913400B60054A7B685360786800F066
:1094440007F800BF0837BD4680BD00BF00150058AF
:1094540080B483B000AF786000BF0C37BD465DF8C0
:10946400047B704780B582B000AF78607B68002BC6
:1094740001D101238DE07B6893F84130DBB2002BEE
:1094840006D17B68002283F840207868FFF79AF8B9
:109494007B68242283F841207B681B681A687B68F8
:1094A4001B6822F001021A607B685A687B681B689B
:1094B40022F070621A617B681B689A687B681B687B
:1094C40022F400429A607B68DB68012B07D17B6839
:1094D4009A687B681B6842F400429A6006E07B68E5
:1094E4009A687B681B6842F404429A607B68DB6874
:1094F400022B08D17B681B685A687B681B6842F49E
:1095040000625A6007E07B681B685A687B681B68C6
:1095140022F400625A607B681B685B687A68126890
:1095240043F0007343F4004353607B681B68DA68BC
:109534007B681B6822F40042DA607B681A697B68E6
:109544005B6942EA03017B689B691A027B681B68BA
:109554000A43DA607B68D9697B681A6A7B681B688E
:109564000A431A607B681B681A687B681B6842F0B0
:1095740001021A607B6800225A647B68202283F807
:1095840041207B6800221A637B68002283F8422012
:10959400002318460837BD4680BD80B483B000AFB1
:1095A400786039607B6893F84130DBB2202B38D186
:1095B4007B6893F84030012B01D1022332E07B68B1
:1095C400012283F840207B68242283F841207B68B1
:1095D4001B681A687B681B6822F001021A607B68AA
:1095E4001B681A687B681B6822F480521A607B68C7
:1095F4001B6819687B681B683A680A431A607B68B1
:109604001B681A687B681B6842F001021A607B6859
:10961400202283F841207B68002283F84020002325
:1096240000E0022318460C37BD465DF8047B704702
:1096340080B485B000AF786039607B6893F84130BE
:10964400DBB2202B39D17B6893F84030012B01D158
:10965400022333E07B68012283F840207B682422C4
:1096640083F841207B681B681A687B681B6822F0BA
:1096740001021A607B681B681B68FB60FB6823F4AB
:109684007063FB603B681B02FA681343FB607B68F2
:109694001B68FA681A607B681B681A687B681B6819
:1096A40042F001021A607B68202283F841207B6823
:1096B400002283F84020002300E0022318461437D8
:1096C400BD465DF8047B704780B584B000AF786018
:1096D4000023FB737B68002B1ED0134BBB607B689D
:1096E40093F83830DBB2002B02D17868FEF7E0FF44
:1096F400B86800F05BF8BB681B6843F00112BB68F4
:109704001A60786800F02CF87B6800225A637B6842
:10971400012283F8382001E00123FB73FB7B184608
:109724001037BD4680BD00BF000C005880B485B022
:1097340000AFF860B9601346FB7100BF1437BD4633
:109744005DF8047B704780B485B000AFF860B96001
:109754001346FB7100BF1437BD465DF8047B7047A8
:1097640080B485B000AF78600023FB600FE07A68B6
:10977400FB689B0013440B4A5A607A68FB68063303
:109784009B001344084A5A60FB680133FB60FB6882
:10979400052BECD900BF00BF1437BD465DF8047B30
:1097A400704700BF319700084B97000880B483B01E
:1097B40000AF78607B6800221A607B684FF03F122C
:1097C4005A607B683F229A6000BF0C37BD465DF843
:1097D400047B704780B400AF054B1B68044A43F414
:1097E4008073136000BFBD465DF8047B704700BF03
:1097F4000004005880B400AF044B1B6803F4C0633A
:109804001846BD465DF8047B704700BF000400584D
:1098140080B400AF4FF0B0431B6803F48013B3F57A
:10982400801F01D1012300E000231846BD465DF8E6
:10983400047B704780B400AF4FF0B0431B684FF017
:10984400B04243F48033136000BFBD465DF8047B2F
:10985400704780B400AF4FF0B0431B684FF0B04284
:1098640023F48033136000BFBD465DF8047B70476A
:1098740080B400AF4FF0B0431B6803F40033B3F57A
:10988400003F01D1012300E000231846BD465DF8E6
:10989400047B704780B400AF4FF0B0431B684FF0B7
:1098A400B04243F48073136000BFBD465DF8047B8F
:1098B400704780B400AF4FF0B0431B684FF0B04224
:1098C40023F48073136000BFBD465DF8047B7047CA
:1098D40080B400AF4FF0B0431B6803F48063B3F56A
:1098E400806F01D1012300E000231846BD465DF8D6
:1098F400047B704780B483B000AF78604FF0B0430E
:109904005B6823F0FE427B681B064FF0B0411343B3
:109914004B6000BF0C37BD465DF8047B704780B4D4
:1099240000AF4FF0B043D3F898304FF0B04243F05B
:109934000103C2F8983000BFBD465DF8047B704750
:1099440080B400AF4FF0B043D3F898304FF0B0423A
:1099540023F00103C2F8983000BFBD465DF8047BD4
:10996400704780B400AF4FF0B043D3F8983003F0A1
:109974000203022B01D1012300E000231846BD4657
:109984005DF8047B704780B400AF4FF0B043D3F868
:1099940090304FF0B04243F00103C2F8903000BF62
:1099A400BD465DF8047B704780B400AF4FF0B04310
:1099B400D3F890304FF0B04223F00103C2F8903056
:1099C40000BFBD465DF8047B704780B400AF4FF024
:1099D400B043D3F890304FF0B04243F00403C2F8E0
:1099E400903000BFBD465DF8047B704780B400AF83
:1099F4004FF0B043D3F890304FF0B04223F004035B
:109A0400C2F8903000BFBD465DF8047B704780B457
:109A140000AF4FF0B043D3F8903003F00203022BB1
:109A240001D1012300E000231846BD465DF8047B04
:109A3400704780B400AF4FF0B043D3F894304FF088
:109A4400B04243F00103C2F8943000BFBD465DF854
:109A5400047B704780B400AF4FF0B043D3F8943028
:109A64004FF0B04223F00103C2F8943000BFBD466A
:109A74005DF8047B704780B400AF4FF0B043D3F877
:109A8400943003F00203022B01D1012300E00023F0
:109A94001846BD465DF8047B704780B400AF4FF0B4
:109AA400B043D3F894304FF0B04243F00403C2F80B
:109AB400943000BFBD465DF8047B704780B400AFAE
:109AC4004FF0B043D3F894304FF0B04223F0040386
:109AD400C2F8943000BFBD465DF8047B704780B483
:109AE40000AF4FF0B043D3F8943003F00803082BD1
:109AF40001D1012300E000231846BD465DF8047B34
:109B0400704780B483B000AF78604FF0B043D3F8AF
:109B1400943023F470627B681B024FF0B04113430E
:109B2400C1F8943000BF0C37BD465DF8047B704724
:109B340080B400AF4FF0B0431B684FF0B04243F025
:109B44000103136000BFBD465DF8047B704780B419
:109B540000AF4FF0B0431B684FF0B04223F0010355
:109B6400136000BFBD465DF8047B704780B400AF4E
:109B74004FF0B0431B6803F00203022B01D1012311
:109B840000E000231846BD465DF8047B704780B4AE
:109B940083B000AF78604FF0B0431B6823F0F0024D
:109BA4004FF0B0417B6813430B6000BF0C37BD46D8
:109BB4005DF8047B704780B483B000AF4FF0B043CE
:109BC4001B6803F0F0037B607B68B02B01D9B023E2
:109BD4007B607B6818460C37BD465DF8047B704794
:109BE40080B483B000AF78604FF0B0435B6823F477
:109BF4007F427B681B024FF0B04113434B6000BFB0
:109C04000C37BD465DF8047B704780B483B000AF69
:109C140078604FF0B0439B6823F003024FF0B041EB
:109C24007B6813438B6000BF0C37BD465DF8047B33
:109C3400704780B400AF4FF0B0439B6803F00C034F
:109C44001846BD465DF8047B704780B483B000AF0E
:109C540078604FF0B0439B6823F0F0024FF0B041BE
:109C64007B6813438B6000BF0C37BD465DF8047BF3
:109C7400704780B483B000AF78604FF0B043D3F83E
:109C8400083123F0F0024FF0B0417B681343C1F870
:109C9400083100BF0C37BD465DF8047B704780B4C3
:109CA40083B000AF78604FF0B043D3F8083123F0AD
:109CB4000F027B681B094FF0B0411343C1F8083110
:109CC40000BF0C37BD465DF8047B704780B483B099
:109CD40000AF78604FF0B0439B6823F4E0624FF02C
:109CE400B0417B6813438B6000BF0C37BD465DF801
:109CF400047B704780B483B000AF78604FF0B0430A
:109D04009B6823F460524FF0B0417B6813438B602F
:109D140000BF0C37BD465DF8047B704780B400AFCC
:109D24004FF0B0439B6803F0F0031846BD465DF85E
:109D3400047B704780B400AF4FF0B043D3F80831D0
:109D44001B0103F0F0031846BD465DF8047B704721
:109D540080B400AF4FF0B0431B684FF0B04243F003
:109D64008073136000BFBD465DF8047B704780B408
:109D740000AF4FF0B0431B684FF0B04223F0807344
:109D8400136000BFBD465DF8047B704780B400AF2C
:109D94004FF0B0431B6803F00073B3F1007F01D1AF
:109DA400012300E000231846BD465DF8047B70479C
:109DB40080B400AF4FF0B043DB681B0A03F07F03AD
:109DC4001846BD465DF8047B704780B400AF4FF081
:109DD400B043DB6803F060431846BD465DF8047B7E
:109DE400704780B400AF4FF0B043DB6803F07003FA
:109DF4001846BD465DF8047B704780B400AF4FF051
:109E0400B043DB6803F003031846BD465DF8047BEA
:109E1400704780B400AF4FF0B0439B6803F48033C5
:109E2400B3F5803F01D1012300E000231846BD466D
:109E34005DF8047B704780B400AF4FF0B043D3F8B3
:109E4400083103F40033B3F5003F01D1012300E0EE
:109E540000231846BD465DF8047B704780B400AF0C
:109E64004FF0B043D3F8083103F48033B3F5803FA7
:109E740001D1012300E000231846BD465DF8047BB0
:109E8400704780B400AF4FF0B0439B6803F40033D5
:109E9400B3F5003F01D1012300E000231846BD467D
:109EA4005DF8047B704780B400AF4FF0B0439B680B
:109EB40003F48023B3F5802F01D1012300E00023B4
:109EC4001846BD465DF8047B7047000090B58DB020
:109ED40000AF78607B68002B01D1012363E37B68CA
:109EE4001B6803F02003002B00F08D80FFF7A1FE18
:109EF400F862FFF782FFB862FB6A002B05D0FB6AA9
:109F04000C2B47D1BB6A012B44D17B68DB69002B46
:109F140001D1012347E37B685C6AFFF74CFE0346EB
:109F24009C4214D97B685B6A184600F003FD034623
:109F3400002B01D0012336E37B685B6A1846FFF7E8
:109F440026FE7B681B6A1846FFF74AFE13E07B680F
:109F54005B6A1846FFF71BFE7B681B6A1846FFF70F
:109F64003FFE7B685B6A184600F0E4FC0346002B66
:109F740001D0012317E300F0C9FC0346A44A13608F
:109F8400A44B1B681846FEF7C1FE0346002B39D0CC
:109F9400012308E37B68DB69002B1ED0FFF7C8FDB3
:109FA400FEF702FF786208E0FEF7FEFE02467B6AD7
:109FB400D31A022B01D90323F5E2FFF7D7FD034699
:109FC400002BF1D07B685B6A1846FFF7E0FD7B68E5
:109FD4001B6A1846FFF704FE15E0FFF7B8FDFEF70D
:109FE400E3FE786208E0FEF7DFFE02467B6AD31ADE
:109FF400022B01D90323D6E2FFF7B8FD0346002B59
:10A00400F1D100E000BF7B681B6803F00103002B63
:10A0140047D0FFF70EFE3862FFF7EFFEF8613B6AA8
:10A02400082B05D03B6A0C2B08D1FB69032B05D107
:10A034007B685B68002B34D10123B4E27B685B68E6
:10A04400B3F5803F02D1FFF7F5FB01E0FFF701FC18
:10A054007B685B68002B12D0FEF7A6FE786208E0EE
:10A06400FEF7A2FE02467B6AD31A642B01D90323AE
:10A0740099E2FFF7FDFB0346002BF1D011E0FEF758
:10A0840093FE786208E0FEF78FFE02467B6AD31ADD
:10A09400642B01D9032386E2FFF7EAFB0346002B76
:10A0A400F1D17B681B6803F00203002B4CD0FFF74F
:10A0B400C0FDB861FFF7A1FE7861BB69042B05D030
:10A0C400BB690C2B0ED17B69022B0BD17B68DB683F
:10A0D400002B01D1012366E27B681B691846FFF758
:10A0E40009FC31E07B68DB68002B19D0FFF7D2FB59
:10A0F400FEF75AFE786208E0FEF756FE02467B6AD7
:10A10400D31A022B01D903234DE2FFF7E1FB0346E7
:10A11400002BF1D07B681B691846FFF7EBFB13E0BB
:10A12400FFF7C7FBFEF740FE786208E0FEF73CFE4F
:10A1340002467B6AD31A022B01D9032333E2FFF7C9
:10A14400C7FB0346002BF1D17B681B6803F00803AF
:10A15400002B06D17B681B6803F01003002B00F072
:10A16400A3807B685B69002B76D07B681B6803F057
:10A174001003002B46D0FFF77EFC0346002B13D1BF
:10A18400FFF757FCFEF710FE786208E0FEF70CFEBE
:10A1940002467B6AD31A022B01D9032303E2FFF799
:10A1A4006AFC0346002BF1D0FFF777FCFEF7FCFDB9
:10A1B400786208E0FEF7F8FD02467B6AD31A032BA7
:10A1C40001D90323EFE1FFF78AFC0346002BF1D00A
:10A1D4007B689B691846FFF794FCFFF73BFCFEF78E
:10A1E400E3FD786208E0FEF7DFFD02467B6AD31ADE
:10A1F400022B01D90323D6E1FFF73DFC0346002BD4
:10A20400F1D151E0FFF715FCFEF7CEFD78620CE0CA
:10A21400080000200C000020FEF7C6FD02467B6A01
:10A22400D31A022B01D90323BDE1FFF724FC034613
:10A23400002BF1D0FFF742FC08E0FEF7B5FD024623
:10A244007B6AD31A032B01D90323ACE1FFF747FC44
:10A254000346002BF1D127E0FFF730FCFEF7A4FD05
:10A26400786208E0FEF7A0FD02467B6AD31A032B4E
:10A2740001D9032397E1FFF732FC0346002BF1D108
:10A28400FFF7E8FBFEF790FD786208E0FEF78CFD2F
:10A2940002467B6AD31A022B01D9032383E1FFF719
:10A2A400EAFB0346002BF1D17B681B6803F004032F
:10A2B400002B5BD0A74B1B6803F48073002B14D1D5
:10A2C400FFF788FAFEF770FD786208E0FEF76CFD90
:10A2D40002467B6AD31A022B01D9032363E19D4B07
:10A2E4001B6803F48073002BF0D07B689B68012B00
:10A2F40002D1FFF748FB0CE07B689B68052B04D177
:10A30400FFF763FBFFF73FFB03E0FFF74DFBFFF7AE
:10A314006DFB7B689B68002B14D0FEF745FD7862CB
:10A324000AE0FEF741FD02467B6AD31A41F2883205
:10A33400934201D9032336E1FFF769FB0346002B5F
:10A34400EFD013E0FEF730FD78620AE0FEF72CFD53
:10A3540002467B6AD31A41F28832934201D903231D
:10A3640021E1FFF754FB0346002BEFD17B681B6808
:10A3740003F04003002B2CD07B689B6A002B14D085
:10A38400FFF7CDFAFEF710FD786208E0FEF70CFD4A
:10A3940002467B6AD31A022B01D9032303E1FFF798
:10A3A400E0FA0346002BF1D013E0FFF7C9FAFEF7F9
:10A3B400FBFC786208E0FEF7F7FC02467B6AD31ADE
:10A3C400022B01D90323EEE0FFF7CBFA0346002B5F
:10A3D400F1D17B68DB6A002B00F0E480FFF729FCF5
:10A3E40038614FF0B043DB68FB607B68DB6A022BAB
:10A3F40040F0B480FB6803F003027B681B6B9A4255
:10A4040023D1FB6803F070027B685B6B9A421CD11A
:10A41400FB681B0A03F07F027B689B6B9A4214D192
:10A42400FB6803F478127B68DB6B9A420DD1FB68FE
:10A4340003F060627B681B6C9A4206D1FB6803F0F0
:10A4440060427B685B6C9A425DD03B690C2B58D0B0
:10A454004FF0B0431B6803F08063002B01D001234D
:10A46400A1E0FFF784FCFEF79FFC786208E0FEF7AA
:10A474009BFC02467B6AD31A022B01D9032392E088
:10A484004FF0B0431B6803F00073002BEFD14FF083
:10A49400B043DA68304B13407A68116B7A68526BB8
:10A4A40011437A68926B120211437A68D26B11439A
:10A4B4007A68126C11437A68526C0A434FF0B041C7
:10A4C4001343CB60FFF744FC4FF0B043DB684FF01D
:10A4D400B04243F08053D360FEF766FC786208E034
:10A4E400FEF762FC02467B6AD31A022B01D90323CE
:10A4F40059E04FF0B0431B6803F00073002BEFD01A
:10A5040050E001234FE04FF0B0431B6803F00073A9
:10A51400002B47D1FFF71CFC4FF0B043DB684FF032
:10A52400B04243F08053D360FEF73EFC786208E00B
:10A53400FEF73AFC02467B6AD31A022B01D90323A5
:10A5440031E04FF0B0431B6803F00073002BEFD0F1
:10A5540028E000BF000400588C80C1113B690C2B1B
:10A564001ED0FFF704FCFEF71FFC786208E0FEF73C
:10A574001BFC02467B6AD31A022B01D9032312E087
:10A584004FF0B0431B6803F00073002BEFD14FF082
:10A59400B043DA684FF0B041054B1340CB6001E0A3
:10A5A400012300E0002318463437BD4690BD00BFA8
:10A5B400FCFFFEEE80B584B000AF786039607B6844
:10A5C400002B01D101232DE1984B1B6803F00703F5
:10A5D4003A689A421BD9954B1B6823F007029349AA
:10A5E4003B6813430B60FEF7DFFBF86008E0FEF7FF
:10A5F400DBFB0246FB68D31A022B01D9032311E1CA
:10A604008A4B1B6803F007033A689A42EFD17B68D0
:10A614001B6803F00203002B16D07B689B68184666
:10A62400FFF713FBFEF7C0FBF86008E0FEF7BCFB86
:10A634000246FB68D31A022B01D90323F2E0FFF789
:10A64400E8FB0346002BF1D07B681B6803F0200372
:10A65400002B16D07B685B691846FFF70AFBFEF7F0
:10A66400A3FBF86008E0FEF79FFB0246FB68D31AE1
:10A67400022B01D90323D5E0FFF7DDFB0346002BB2
:10A68400F1D07B681B6803F04003002B16D07B6875
:10A694009B691846FFF703FBFEF786FBF86008E0AA
:10A6A400FEF782FB0246FB68D31A022B01D903236F
:10A6B400B8E0FFF7D3FB0346002BF1D07B681B689F
:10A6C40003F00403002B16D07B68DB681846FFF701
:10A6D400FDFAFEF769FBF86008E0FEF765FB024649
:10A6E400FB68D31A022B01D903239BE0FFF7C9FBB4
:10A6F4000346002BF1D07B681B6803F00803002B92
:10A7040017D07B681B69DB001846FFF7F3FAFEF7E6
:10A714004BFBF86008E0FEF747FB0246FB68D31AE0
:10A72400022B01D903237DE0FFF7BDFB0346002B79
:10A73400F1D07B681B6803F00103002B43D07B68D6
:10A744005B68022B06D1FFF793F80346002B1ED15A
:10A75400012367E07B685B68032B06D1FFF716FBD8
:10A764000346002B13D101235CE07B685B68002B5C
:10A7740006D1FFF7FBF90346002B08D1012351E072
:10A78400FFF7A6F80346002B01D101234AE07B68BA
:10A794005B681846FFF739FAFEF706FBF8600AE033
:10A7A400FEF702FB0246FB68D31A41F28832934259
:10A7B40001D9032336E0FFF73CFA02467B685B6865
:10A7C4009B009A42ECD1194B1B6803F007033A68CB
:10A7D4009A421BD2154B1B6823F0070213493B68AE
:10A7E40013430B60FEF7E0FAF86008E0FEF7DCFACA
:10A7F4000246FB68D31A022B01D9032312E00B4B48
:10A804001B6803F007033A689A42EFD100F07EF820
:10A814000346074A1360FEF7D3FA03461846FEF7C9
:10A8240075FA034618461037BD4680BD00400058EF
:10A834000800002090B585B000AFFFF7FAF9786002
:10A844007B68002B0AD1FFF7B6F903461B0903F016
:10A854000F032B4A52F82330FB604BE07B68042B38
:10A8640002D1284BFB6045E07B68082B0AD1FEF738
:10A87400CFFF0346012B02D1224BFB603AE0224B6F
:10A88400FB6037E0FFF7B9FA38603B68022B03D06E
:10A894003B68032B03D00DE01A4BBB6015E0FEF7B9
:10A8A400B7FF0346012B02D1164BBB600DE0164BDC
:10A8B400BB600AE0FFF77FF903461B0903F00F03AF
:10A8C4000F4A52F82330BB6000BFFFF771FA02460B
:10A8D400BB6803FB02F4FFF784FA03461B09013348
:10A8E400B4FBF3F4FFF771FA03465B0F0133B4FBD7
:10A8F400F3F3FB60FB6818461437BD4690BD00BFF8
:10A9040028F100080024F4000048E80198B500AFDD
:10A91400FFF790FF0446FFF701FA03461B0903F013
:10A924000F03034A52F82330B4FBF3F3184698BDDF
:10A93400E8F0000890B585B000AF78607B68B02B74
:10A9440003D9154BDB6AFB6007E07B681B0903F046
:10A954000F03114A52F82330FB60FFF7EBF903466B
:10A964001B0903F00F030D4A52F82330FA68B2FBB7
:10A97400F3F3BB60BB680A4AA2FB03239C0CFEF7FB
:10A9840039FF03461946204600F00CF803461846E2
:10A994001437BD4690BD00BF28F10008E8F0000858
:10A9A40083DE1B4390B593B000AF78603960374BBA
:10A9B40007F128040FCB84E80F00354A07F11C0384
:10A9C40007CA83E80700334B07F10C040FCB84E874
:10A9D4000F0000237B643B68B3F5007F1AD100238A
:10A9E4003B6413E03B6C9B0048333B4453F8203CEE
:10A9F4007A689A4207D83B6C9B0048333B4453F82F
:10AA04003C3C7B6420E03B6C01333B643B6C032B9C
:10AA1400E8D919E00023FB6313E0FB6B9B00483388
:10AA24003B4453F82C3C7A689A4207D8FB6B9B0052
:10AA340048333B4453F83C3C7B6405E0FB6B0133F7
:10AA4400FB63FB6B022BE8D9134B1B6823F0070253
:10AA540011497B6C13430B60FEF7A6F9B86308E059
:10AA6400FEF7A2F90246BB6BD31A022B01D90323CA
:10AA740007E0094B1B6803F007037A6C9A42EFD195
:10AA8400002318464C37BD4690BD00BF44EF000874
:10AA940054EF000860EF00080040005880B400AF95
:10AAA4004FF0B043D3F8903003F00103012B01D1F0
:10AAB400012300E000231846BD465DF8047B70477F
:10AAC40080B400AF4FF0B043D3F8903003F00203EA
:10AAD400022B01D1012300E000231846BD465DF896
:10AAE400047B704780B483B000AF78604FF0B0430C
:10AAF400D3F8943023F440424FF0B0417B681343C1
:10AB0400C1F8943000BF0C37BD465DF8047B704734
:10AB140080B483B000AF78604FF0B0435B6A23F039
:10AB240003024FF0B0417B6813434B6200BF0C3704
:10AB3400BD465DF8047B704780B483B000AF786095
:10AB44004FF0B0435B6A23F030024FF0B0417B68B2
:10AB540013434B6200BF0C37BD465DF8047B70475E
:10AB640080B483B000AF78604FF0B043D3F888303E
:10AB740023F003024FF0B0417B681343C1F88830DF
:10AB840000BF0C37BD465DF8047B704780B483B0CA
:10AB940000AF78604FF0B043D3F8883023F44062BC
:10ABA4004FF0B0417B681343C1F8883000BF0C37C5
:10ABB400BD465DF8047B704780B483B000AF786015
:10ABC4004FF0B043D3F888207B681B0903F47F233C
:10ABD400DB431A407B681B0103F47F234FF0B04131
:10ABE4001343C1F8883000BF0C37BD465DF8047BC1
:10ABF400704780B483B000AF78604FF0B043D3F8AF
:10AC040088207B681B0C1B04DB431A407B681B04F5
:10AC14004FF0B0411343C1F8883000BF0C37BD4634
:10AC24005DF8047B704780B483B000AF78604FF068
:10AC3400B043D3F8883023F440024FF0B0417B682E
:10AC44001343C1F8883000BF0C37BD465DF8047B60
:10AC5400704780B483B000AF78604FF0B043D3F84E
:10AC6400883023F040424FF0B0417B681343C1F871
:10AC7400883000BF0C37BD465DF8047B704780B454
:10AC840083B000AF78604FF0B043D3F8883023F03E
:10AC940040624FF0B0417B681343C1F8883000BF75
:10ACA4000C37BD465DF8047B704780B582B000AFB9
:10ACB40078607868FFF7E3FF00BF0837BD4680BDC2
:10ACC40080B483B000AF78604FF0B043D3F88830DD
:10ACD40023F040524FF0B0417B681343C1F88830F1
:10ACE40000BF0C37BD465DF8047B704780B483B069
:10ACF40000AF78604FF0B043D3F8903023F4407243
:10AD04004FF0B0417B681343C1F8903000BF0C375B
:10AD1400BD465DF8047B704780B400AF4FF0B0438C
:10AD2400D3F8903003F440731846BD465DF8047BB5
:10AD3400704780B400AF4FF0B043D3F890304FF079
:10AD4400B04243F48033C2F8903000BFBD465DF892
:10AD5400047B704780B400AF4FF0B043D3F8903019
:10AD64004FF0B04223F48033C2F8903000BFBD46A8
:10AD74005DF8047B704780B400AF4FF0B0431B68AC
:10AD84004FF0B04243F08063136000BFBD465DF8EE
:10AD9400047B704780B400AF4FF0B0431B684FF0A2
:10ADA400B04223F08063136000BFBD465DF8047BAE
:10ADB400704780B400AF4FF0B0431B6803F00063EA
:10ADC400B3F1006F01D1012300E000231846BD4612
:10ADD4005DF8047B704780B588B000AF78600023CD
:10ADE400FB770023BB777B681B6803F04003002BD1
:10ADF40034D07B681B6BB3F5400F21D0B3F5400F03
:10AE04001BD8B3F5000F1DD0B3F5000F15D8002BD8
:10AE14000BD0B3F5800F10D14FF0B043DB684FF087
:10AE2400B04243F48033D3600DE07B6804331846AA
:10AE340000F047F90346FB7705E00123FB7702E0C6
:10AE440000BF00E000BFFB7F002B05D17B681B6BBC
:10AE54001846FFF7E8FE01E0FB7FBB777B681B68C1
:10AE640003F40063002B46D0FFF756FFB8617B68FC
:10AE74001B6CBA699A423CD0FEF7ACFCBB69002B50
:10AE840005D17B681B6C1846FFF730FF2EE04FF0AE
:10AE9400B043D3F890307B61FFF74BFFFFF75AFFC5
:10AEA4007B6923F440727B681B6C13437B614FF016
:10AEB400B0427B69C2F89030FFF7F0FD0346012BE6
:10AEC40014D1FDF771FF38610BE0FDF76DFF024609
:10AED4003B69D31A41F28832934202D90323FB77A8
:10AEE40004E0FFF7EDFD0346012BEED1FB7FBB77BA
:10AEF40001E0FB7FBB777B681B6803F00103002B39
:10AF040004D07B689B691846FFF72AFE7B681B68A0
:10AF140003F00203002B04D07B68DB691846FFF7BB
:10AF240035FE7B681B6803F01003002B04D07B689C
:10AF34009B6A1846FFF75DFE7B681B6803F02003DD
:10AF4400002B04D07B68DB6A1846FFF752FE7B684F
:10AF54001B6803F00403002B04D07B681B6A1846AB
:10AF6400FFF72AFE7B681B6803F00803002B04D05C
:10AF74007B685B6A1846FFF71FFE7B681B6803F457
:10AF84008073002B22D07B685B6B1846FFF78DFE25
:10AF94007B685B6BB3F1006F07D14FF0B043DB68A4
:10AFA4004FF0B04243F08073D3607B685B6BB3F1C6
:10AFB400806F0BD17B680433184600F0DDF803463C
:10AFC400FB77FB7F002B01D0FB7FBB777B681B6883
:10AFD40003F40073002B2BD07B689B6BB3F1804F81
:10AFE40008D07B689B6BB3F1004F03D07B689B6BED
:10AFF400002B05D17B689B6B1846FFF72AFE0AE0FD
:10B004007B689B6B23F08053FB600020FFF721FEDD
:10B01400F868FFF734FE7B689B6BB3F1C05F07D120
:10B024004FF0B043DB684FF0B04243F08073D3601D
:10B034007B681B6803F48063002B22D07B68DB6B86
:10B044001846FFF73DFE7B68DB6BB3F1005F07D169
:10B054004FF0B043DB684FF0B04243F48033D36029
:10B064007B68DB6BB3F1805F0BD17B6804331846DC
:10B0740000F0DDF80346FB77FB7F002B01D0FB7F5C
:10B08400BB777B681B6803F48053002B04D07B6878
:10B094005B6C1846FFF726FD7B681B6803F40053BE
:10B0A400002B09D07B68DB6C1846FFF745FD7B68F5
:10B0B4009B6C1846FFF72CFDBB7F18462037BD4616
:10B0C40080BD80B584B000AF78600023FB73FFF7C8
:10B0D40061FEFDF769FEB86009E0FDF765FE024612
:10B0E400BB68D31A022B02D90323FB7304E0FFF7D6
:10B0F40060FE0346002BF0D1FB7B002B37D14FF0D1
:10B10400B0431B6923F4FE427B681B681B024FF0AB
:10B11400B04113430B614FF0B0431B6923F4781221
:10B124007B685B684FF0B04113430B61FFF723FE6C
:10B13400FDF73AFEB86009E0FDF736FE0246BB684B
:10B14400D31A022B02D90323FB7304E0FFF731FE69
:10B154000346012BF0D1FB7B002B08D14FF0B04309
:10B164001A697B681B694FF0B04113430B61FB7B89
:10B1740018461037BD4680BD80B584B000AF7860F6
:10B184000023FB73FFF706FEFDF70EFEB86009E02F
:10B19400FDF70AFE0246BB68D31A022B02D9032329
:10B1A400FB7304E0FFF705FE0346002BF0D1FB7BA5
:10B1B400002B37D14FF0B0431B6923F4FE427B6868
:10B1C4001B681B024FF0B04113430B614FF0B043B7
:10B1D4001B6923F060627B689B684FF0B0411343A6
:10B1E4000B61FFF7C8FDFDF7DFFDB86009E0FDF76F
:10B1F400DBFD0246BB68D31A022B02D90323FB737F
:10B2040004E0FFF7D6FD0346012BF0D1FB7B002BB6
:10B2140008D14FF0B0431A697B681B694FF0B04105
:10B2240013430B61FB7B18461037BD4680BD80B5C8
:10B2340084B000AF78600023FB73FFF7ABFDFDF72C
:10B24400B3FDB86009E0FDF7AFFD0246BB68D31A51
:10B25400022B02D90323FB7304E0FFF7AAFD034684
:10B26400002BF0D1FB7B002B37D14FF0B0431B698F
:10B2740023F4FE427B681B681B024FF0B04113436A
:10B284000B614FF0B0431B6923F060427B68DB68BD
:10B294004FF0B04113430B61FFF76DFDFDF784FDE3
:10B2A400B86009E0FDF780FD0246BB68D31A022BA3
:10B2B40002D90323FB7304E0FFF77BFD0346012B54
:10B2C400F0D1FB7B002B08D14FF0B0431A697B68A7
:10B2D4001B694FF0B04113430B61FB7B18461037D9
:10B2E400BD4680BD80B584B000AF78600123FB7398
:10B2F4007B68002B01D101237AE07B6893F821302D
:10B30400DBB2002B06D17B68002283F8202078680A
:10B31400FDF70CFB7B68022283F821207B681B6805
:10B32400DB6803F01003102B58D07B681B68CA221B
:10B334005A627B681B6853225A62786800F082F86C
:10B344000346FB73FB7B002B2CD17B681B689B683B
:10B354007A68126823F4E00323F0400393607B6867
:10B364001B6899687B685A687B681B691A437B6809
:10B374009B691A437B681B680A439A607B681B6855
:10B384007A68D2681A617B681B6819697B689B6854
:10B394001A047B681B680A431A61786800F08AF80B
:10B3A4000346FB73FB7B002B13D17B681B68DA6CB1
:10B3B4007B681B6822F00302DA647B681B68D96C23
:10B3C4007B68DA697B685B691A437B681B680A439C
:10B3D400DA647B681B68FF225A6201E00023FB7376
:10B3E400FB7B002B03D17B68012283F82120FB7BAC
:10B3F40018461037BD4680BD80B584B000AF786074
:10B404000023FB607B681B680D4ADA60FDF7CCFC07
:10B41400F86009E0FDF7C8FC0246FB68D31AB3F5EF
:10B424007A7F01D9032307E07B681B68DB6803F09C
:10B434002003002BEED0002318461037BD4680BDF4
:10B444005FFF010080B584B000AF78600023BB606B
:10B454000023FB737B681B68DB6803F04003002B4D
:10B4640023D17B681B68DA687B681B6842F0800222
:10B47400DA60FDF799FCB8600DE0FDF795FC024633
:10B48400BB68D31AB3F57A7F05D97B68042283F8A5
:10B4940021200123FB737B681B68DB6803F04003F6
:10B4A400002B02D1FB7B012BE7D1FB7B1846103725
:10B4B400BD4680BD80B584B000AF78600023FB73C7
:10B4C4007B681B68DA687B681B6822F08002DA609C
:10B4D4007B681B689B6803F02003002B0BD1786802
:10B4E400FFF78AFF0346002B05D07B68042283F80C
:10B4F40021200123FB73FB7B18461037BD4680BD1A
:10B5040080B487B000AFF860B9607A605F4B1B68A5
:10B514005F4AA2FB0323DB0A4FF47A7202FB03F3B4
:10B524007B61FB6893F82030012B01D10223A7E053
:10B53400FB68012283F82020FB68022283F8212083
:10B54400FB681B68CA225A62FB681B6853225A6252
:10B55400FB681B689B6803F48063002B1AD07B692B
:10B56400013B7B617B69002B0DD1FB681B68FF22CB
:10B574005A62FB68032283F82120FB68002283F8C7
:10B58400202003237CE0FB681B68DB6803F00403D2
:10B59400002BE4D1FB681B689A68FB681B6822F4E3
:10B5A40080629A60FB681B68DB68DAB2FB681B6820
:10B5B40062F49062DA60354B1B68354AA2FB0323C0
:10B5C400DB0A4FF47A7202FB03F37B617B69013B74
:10B5D4007B617B69002B0DD1FB681B68FF225A62DB
:10B5E400FB68032283F82120FB68002283F82020D3
:10B5F400032345E0FB681B68DB6803F00403002BAE
:10B60400E4D0FB681B689A68FB681B6822F0070299
:10B614009A60FB681B689968FB681B687A680A4330
:10B624009A60FB681B68BA685A611A4BD3F8803079
:10B63400184A43F40023C2F88030164B1B68154A9D
:10B6440043F400231360FB681B689A68FB681B685B
:10B6540042F480429A60FB681B689A68FB681B6826
:10B6640042F480629A60FB681B68FF225A62FB689E
:10B67400012283F82120FB68002283F82020002384
:10B6840018461C37BD465DF8047B7047080000204F
:10B69400D34D62100008005880B584B000AF7860C4
:10B6A4007B68002B01D1012395E07B685B6A002B4A
:10B6B40008D17B685B68B3F5827F09D07B68002280
:10B6C400DA6105E07B6800221A617B6800225A6116
:10B6D4007B6800229A627B6893F85D30DBB2002BB2
:10B6E40006D17B68002283F85C207868FDF7C2F9F4
:10B6F4007B68022283F85D207B681B681A687B687C
:10B704001B6822F040021A607B68DB68B3F5E06FC7
:10B7140002D90023FB6002E04FF48053FB607B6896
:10B72400DB68B3F5706F07D07B68DB68B3F5E06F57
:10B7340002D07B6800229A627B685B6803F48272A1
:10B744007B689B6803F404431A437B681B6903F01A
:10B7540002031A437B685B6903F001031A437B68A5
:10B764009B6903F400731A437B68DB6903F03803B5
:10B774001A437B681B6A03F0800342EA03017B6877
:10B784009B6A03F400527B681B680A431A607B6857
:10B794009B691B0C03F004027B685B6A03F01003D3
:10B7A4001A437B685B6B03F008031A437B68DB680E
:10B7B40003F4706342EA0301FB6803F480527B687C
:10B7C4001B680A435A607B6800221A667B68012260
:10B7D40083F85D20002318461037BD4680BD80B530
:10B7E40088B000AF0023FB7107F108031822002181
:10B7F400184601F02DF93F233B8181237B81FB1DFA
:10B80400BB610123FB6107F108030021184601F025
:10B81400A9FB0346002B01DAFF2300E0FB7918465D
:10B824002037BD4680BDB0B5CEB000AF05460C464E
:10B834001046194607F59C73A3F231132A461A7071
:10B8440007F59C73A3F59A7322461A8007F59C7337
:10B85400A3F59B7302461A8007F59C73A3F59973AD
:10B864000A461A7007F11003C7F8343197F84C31BF
:10B87400083307F110021344C7F8303197F84C210C
:10B8840097F854311344093307F110021344C7F8ED
:10B894002C3107F59C73A3F2291300221A7000239C
:10B8A400C7F82831D7F8343107F59C72A2F2311267
:10B8B40012781A70D7F828310133C7F82831D7F82D
:10B8C400343107F59C72A2F59A721288A3F801200C
:10B8D400D7F828310233C7F82831D7F8343107F5BF
:10B8E4009C72A2F59B721288A3F80320D7F8283122
:10B8F4000233C7F82831D7F8343107F59C72A2F522
:10B90400997212785A71D7F828310133C7F828315F
:10B91400D7F8343197F848219A71D7F82831013390
:10B92400C7F82831D7F8343197F84C21DA71D7F8B1
:10B9340028310133C7F82831D7F83431083397F860
:10B944004C21D7F85011184601F072F897F84C3191
:10B95400D7F828211344C7F82831D7F8303197F89D
:10B9640054211A70D7F828310133C7F82831D7F891
:10B974003031013397F85421D7F85811184601F0A3
:10B9840057F897F85431D7F828211344C7F82831C9
:10B99400D7F82C31B7F85C211A80D7F82831023354
:10B9A400C7F82831D7F82C31B7F860215A80D7F876
:10B9B40028310233C7F8283107F58873182200218B
:10B9C400184601F045F83F23A7F810318323A7F860
:10B9D400123107F11003C7F81831D7F82831C7F826
:10B9E4001C3107F10F03C7F820310123C7F82431B4
:10B9F40007F588730021184601F0B4FA0346002BBA
:10BA040001DAFF2304E007F59C73A3F229131B78E2
:10BA1400184607F59C77BD46B0BD80B5CCB000AFE5
:10BA2400024607F59873A3F229131A7007F110035D
:10BA3400C7F82C3107F59873A3F2211300221A706A
:10BA44000023C7F82831D7F82C3107F59872A2F2F1
:10BA5400291212781A70D7F828310133C7F828311F
:10BA640007F5887318220021184600F0F1FF3F23E0
:10BA7400A7F810318523A7F8123107F11003C7F88E
:10BA84001831D7F82831C7F81C3107F10F03C7F86C
:10BA940020310123C7F8243107F5887300211846A3
:10BAA40001F060FA0346002B01DAFF2304E007F5F6
:10BAB4009873A3F221131B78184607F59877BD46AF
:10BAC40080BDB0B5CCB000AF05460C461046194653
:10BAD40007F59873A3F229132A461A7007F5987389
:10BAE400A3F5957322461A7007F59873A3F22B13E6
:10BAF40002461A7007F59873A3F596730A461A70EE
:10BB040007F11003C7F82C3107F59873A3F221133A
:10BB140000221A700023C7F82831D7F82C3107F512
:10BB24009872A2F2291212781A70D7F828310133C8
:10BB3400C7F82831D7F82C3107F59872A2F5957219
:10BB440012785A70D7F828310133C7F82831D7F85A
:10BB54002C3107F59872A2F22B1212789A70D7F84A
:10BB640028310133C7F82831D7F82C3107F59872FA
:10BB7400A2F596721278DA70D7F828310133C7F833
:10BB84002831D7F82C3197F840211A71D7F8283189
:10BB94000133C7F82831D7F82C3197F844215A716A
:10BBA400D7F828310133C7F82831D7F82C3197F862
:10BBB40048219A71D7F828310133C7F82831D7F8CA
:10BBC4002C31D7F84C21C3F80720D7F82831043397
:10BBD400C7F82831D7F82C3197F85021DA72D7F802
:10BBE40028310133C7F8283107F58873182200215A
:10BBF400184600F02DFF3F23A7F810318623A7F83D
:10BC0400123107F11003C7F81831D7F82831C7F8F3
:10BC14001C3107F10F03C7F820310123C7F8243181
:10BC240007F588730021184601F09CF90346002BA0
:10BC340001DAFF2304E007F59873A3F221131B78BC
:10BC4400184607F59877BD46B0BD80B5CCB000AFB7
:10BC5400024607F59873A3F59873196007F598736E
:10BC6400A3F595731A8007F11003C7F82C3107F573
:10BC74009873A3F2211300221A700023C7F8283105
:10BC8400D7F82C3107F59872A2F5957212881A80AC
:10BC9400D7F828310233C7F82831D7F82C3107F503
:10BCA4009872A2F598721268C3F80220D7F8283166
:10BCB4000433C7F8283107F5887318220021184681
:10BCC40000F0C6FE3F23A7F810318823A7F81231ED
:10BCD40007F11003C7F81831D7F82831C7F81C3119
:10BCE40007F10F03C7F820310123C7F8243107F502
:10BCF40088730021184601F035F90346002B01DA58
:10BD0400FF2304E007F59873A3F221131B78184668
:10BD140007F59877BD4680BD90B5CDB000AF044619
:10BD24000846114607F59872A2F59872136007F554
:10BD34009873A3F2291322461A7007F59873A3F592
:10BD4400957302461A7007F59873A3F22B130A46EB
:10BD54001A7007F11003C7F82C3107F10803072202
:10BD64000021184600F074FE0023C7F82831D7F8E4
:10BD74002C3107F59872A2F2291212781A70D7F8AA
:10BD840028310133C7F82831D7F82C3107F59872D8
:10BD9400A2F5957212785A70D7F828310133C7F892
:10BDA4002831D7F82C3107F59872A2F22B121278A9
:10BDB4009A70D7F828310133C7F8283107F588730A
:10BDC40018220021184600F043FE3F23A7F8103143
:10BDD4008A23A7F8123107F11003C7F81831D7F8EE
:10BDE4002831C7F81C3107F10803C7F820310723AD
:10BDF400C7F8243107F588730021184601F0B2F81A
:10BE04000346002B01DAFF232EE007F59873A3F510
:10BE140094731B78002B05D007F59873A3F59473DE
:10BE24001B7821E007F59873A3F59473B3F80130F8
:10BE34009AB207F59873A3F598731B681A8007F5EF
:10BE44009873A3F59473B3F803309AB2D7F84031DA
:10BE54001A8007F59873A3F59473B3F805309AB272
:10BE6400D7F844311A800023184607F59A77BD465F
:10BE740090BD80B5CCB000AF024607F59873A3F52A
:10BE84009873196007F59873A3F229131A7007F1D0
:10BE94001003C7F82C3107F59873A3F2211300227D
:10BEA4001A700023C7F82831D7F82C3107F5987297
:10BEB400A2F2291212781A70D7F828310133C7F880
:10BEC4002831D7F82C31581C07F59873A3F229139D
:10BED4001A7807F59873A3F59873196800F0A8FD0C
:10BEE40007F59873A3F229131B78D7F82821134474
:10BEF400C7F8283107F5887318220021184600F086
:10BF0400A7FD3F23A7F810318E23A7F8123107F1BC
:10BF14001003C7F81831D7F82831C7F81C3107F1D6
:10BF24000F03C7F820310123C7F8243107F58873BC
:10BF34000021184601F016F80346002B01DAFF230E
:10BF440004E007F59873A3F221131B78184607F54C
:10BF54009877BD4680BD80B588B000AF0023FB71E3
:10BF640007F1080318220021184600F071FD3F2351
:10BF74003B8192237B81FB1DBB610123FB6107F1A4
:10BF840008030021184600F0EDFF0346002B01DAF8
:10BF9400FF2300E0FB7918462037BD4680BD80B5FD
:10BFA400CCB000AF024607F59873A3F595731A80D9
:10BFB40007F59873A3F22B130A461A7007F11003BE
:10BFC400C7F82C3107F59873A3F2211300221A70D5
:10BFD4000023C7F82831D7F82C3107F59872A2F559
:10BFE400957212881A80D7F828310233C7F828319D
:10BFF400D7F82C3107F59872A2F22B1212789A70A6
:10C00400D7F828310133C7F8283107F58873182287
:10C014000021184600F01CFD3F23A7F81031A5238A
:10C02400A7F8123107F11003C7F81831D7F82831EF
:10C03400C7F81C3107F10F03C7F820310123C7F8F3
:10C04400243107F588730021184600F08BFF03465E
:10C05400002B01DAFF2304E007F59873A3F2211300
:10C064001B78184607F59877BD4680BD80B588B023
:10C0740000AF0023FB7107F10803182200211846C2
:10C0840000F0E6FC3F233B8140F201137B81FB1D62
:10C09400BB610123FB6107F108030021184600F08E
:10C0A40061FF0346002B01DAFF2300E0FB79184609
:10C0B4002037BD4680BD90B5CFB000AF044607F52C
:10C0C4009C70A0F59C7001601046194607F59C739E
:10C0D400A3F2311322461A7007F59C73A3F59973E2
:10C0E40002461A7007F59C73A3F233130A461A70BA
:10C0F40007F11003C7F8303107F59C73A3F231132D
:10C104001B78012B0AD007F59C73A3F231131B781B
:10C11400022B01D1112302E0012300E0032307F1E4
:10C1240010021344C7F82C3107F10C030322002139
:10C13400184600F08DFC0023C7F82831D7F83031B9
:10C1440007F59C72A2F2311212781A70D7F82831CE
:10C154000133C7F8283107F59C73A3F231131B7818
:10C16400012B02D0022B04D007E0022387F83731D9
:10C1740005E0102387F8373101E097236CE0D7F806
:10C184003031581C97F8372107F59C73A3F59C733D
:10C19400196800F04DFC97F83731D7F8282113447B
:10C1A400C7F82831D7F82C3107F59C72A2F599729B
:10C1B40012781A70D7F828310133C7F82831D7F824
:10C1C4002C3107F59C72A2F2331212785A70D7F808
:10C1D40028310133C7F8283107F588731822002164
:10C1E400184600F035FC3F23A7F810314FF4817353
:10C1F400A7F8123107F11003C7F81831D7F828311E
:10C20400C7F81C3107F10C03C7F820310323C7F822
:10C21400243107F588730021184600F0A3FE034675
:10C22400002B01DAFF2317E007F59C73A3F596733F
:10C234001B78002B05D007F59C73A3F596731B7828
:10C244000AE007F59C73A3F59673B3F801309AB22C
:10C25400D7F848311A800023184607F59E77BD4663
:10C2640090BD90B5D1B000AF0446084607F5A07163
:10C27400A1F59C710A60194607F5A073A3F599739B
:10C2840022461A8007F5A073A3F2331302461A70EC
:10C2940007F5A073A3F59D730A461A8007F11803E6
:10C2A400C7F8383107F5A073A3F233131B78012BB9
:10C2B4000AD007F5A073A3F233131B78022B01D124
:10C2C400132302E0032300E0052307F118021344BB
:10C2D400C7F8343107F1140303220021184600F093
:10C2E400B7FB0023C7F83031D7F8383107F5A0720F
:10C2F400A2F5997212881A80D7F830310233C7F840
:10C304003031D7F8383107F5A072A2F2331212781F
:10C314009A70D7F830310133C7F8303107F5A0737C
:10C32400A3F233131B78012B02D0022B04D007E0B5
:10C33400022387F83F3105E0102387F83F3101E0FD
:10C34400972391E0D7F83831D81C97F83F2107F5A7
:10C35400A073A3F59C73196800F06AFB97F83F314A
:10C36400D7F830211344C7F83031D7F8343107F502
:10C37400A072A2F59D7212881A80D7F83031023368
:10C38400C7F83031D7F8343197F850219A70D7F87C
:10C3940030310133C7F83031D7F8343197F85421AC
:10C3A400DA70D7F830310133C7F83031D7F8343187
:10C3B40097F858211A71D7F830310133C7F8303162
:10C3C400D7F8343197F85C215A71D7F830310133FA
:10C3D400C7F83031D7F8343197F860219A71D7F81B
:10C3E40030310133C7F8303107F58C73182200213E
:10C3F400184600F02DFB3F23A7F818314FF4827341
:10C40400A7F81A3107F11803C7F82031D7F83031EB
:10C41400C7F8243107F11403C7F828310323C7F8F8
:10C424002C3107F58C730021184600F09BFD034660
:10C43400002B01DAFF2317E007F5A073A3F5967329
:10C444001B78002B05D007F5A073A3F596731B7812
:10C454000AE007F5A073A3F59673B3F801309AB216
:10C46400D7F864311A800023184607F5A277BD4631
:10C4740090BDB0B5CCB000AF05460C461046194689
:10C4840007F59873A3F595732A461A8007F59873F0
:10C49400A3F5967322461A8007F59873A3F22D1319
:10C4A40002461A7007F59873A3F597730A461A7033
:10C4B40007F11003C7F82C3107F59873A3F2211381
:10C4C40000221A700023C7F82831D7F82C3107F559
:10C4D4009872A2F5957212881A80D7F8283102331F
:10C4E400C7F82831D7F82C3107F59872A2F596725F
:10C4F40012885A80D7F828310233C7F82831D7F880
:10C504002C3107F59872A2F22D1212781A71D7F80D
:10C5140028310133C7F82831D7F82C3107F5987240
:10C52400A2F5977212785A71D7F828310133C7F8F7
:10C534002831D7F82C31981D07F59873A3F5977314
:10C544001B781A46D7F8401100F072FA07F5987371
:10C55400A3F597731B78D7F828211344C7F828311B
:10C5640007F5887318220021184600F071FA3F235A
:10C57400A7F810314FF48373A7F8123107F11003B1
:10C58400C7F81831D7F82831C7F81C3107F10F0361
:10C59400C7F820310123C7F8243107F58873002137
:10C5A400184600F0DFFC0346002B01DAFF2304E009
:10C5B40007F59873A3F221131B78184607F59877AB
:10C5C400BD46B0BD80B5CCB000AF024607F5987348
:10C5D400A3F595731A8007F11003C7F82C3107F5FA
:10C5E4009873A3F2211300221A700023C7F828318C
:10C5F400D7F82C3107F59872A2F5957212881A8033
:10C60400D7F828310233C7F8283107F58873182280
:10C614000021184600F01CFA3F23A7F8103140F21D
:10C624002513A7F8123107F11003C7F81831D7F80A
:10C634002831C7F81C3107F10F03C7F82031012353
:10C64400C7F8243107F588730021184600F08AFCE6
:10C654000346002B01DAFF2304E007F59873A3F2E5
:10C6640021131B78184607F59877BD4680BD80B521
:10C67400CCB000AF07F59873A3F598731A6007F56B
:10C684009873A3F2291302461A7007F59873A3F559
:10C6940095730A461A7007F11003C7F82C3107F591
:10C6A4009873A3F2211300221A700023C7F82831CB
:10C6B400D7F82C3107F59872A2F2291212781A7061
:10C6C400D7F828310133C7F82831D7F82C3107F5CA
:10C6D4009872A2F5957212785A70D7F828310133FE
:10C6E400C7F82831D7F82C31981C07F59873A3F5AF
:10C6F40095731A7807F59873A3F59873196800F081
:10C7040097F907F59873A3F595731B78D7F8282143
:10C714001344C7F8283107F58873182200211846F6
:10C7240000F096F93F23A7F810310C23A7F8123133
:10C7340007F11003C7F81831D7F82831C7F81C31AE
:10C7440007F10F03C7F820310123C7F8243107F597
:10C7540088730021184600F005FC0346002B01DA1B
:10C76400FF2304E007F59873A3F221131B781846FE
:10C7740007F59877BD4680BD80B5CCB000AF0246C2
:10C7840007F59873A3F229131A7007F59873A3F5A4
:10C7940095730A461A7007F11003C7F82C3107F590
:10C7A4009873A3F2211300221A700023C7F82831CA
:10C7B400D7F82C3107F59872A2F2291212781A7060
:10C7C400D7F828310133C7F82831D7F82C3107F5C9
:10C7D4009872A2F5957212785A70D7F828310133FD
:10C7E400C7F8283107F5887318220021184600F08D
:10C7F4002FF93F23A7F810310F23A7F8123107F1BF
:10C804001003C7F81831D7F82831C7F81C3107F1DD
:10C814000F03C7F820310123C7F8243107F58873C3
:10C824000021184600F09EFB0346002B01DAFF238B
:10C8340004E007F59873A3F221131B78184607F553
:10C844009877BD4680BD80B5CCB000AF024607F5F1
:10C854009873A3F595731A8007F11003C7F82C3168
:10C8640007F59873A3F2211300221A700023C7F866
:10C874002831D7F82C3107F59872A2F595721288F1
:10C884001A80D7F828310233C7F8283107F588739E
:10C8940018220021184600F0DBF83F23A7F81031D6
:10C8A4001823A7F8123107F11003C7F81831D7F885
:10C8B4002831C7F81C3107F10F03C7F820310123D1
:10C8C400C7F8243107F588730021184600F04AFBA5
:10C8D4000346002B01DAFF2304E007F59873A3F263
:10C8E40021131B78184607F59877BD4680BD80B59F
:10C8F40088B000AF0023FB7107F108031822002160
:10C90400184600F0A5F803233B8103237B81FB1D1C
:10C91400BB610123FB6107F108030021184600F005
:10C9240021FB0346002B01DAFF2300E0FB791846C4
:10C934002037BD4680BD90B5CDB000AF0446084653
:10C94400114607F59873A3F2291322461A7007F5C6
:10C954009873A3F5957302461A7007F59873A3F2BA
:10C964002B130A461A7007F11003C7F82C3107F588
:10C974009873A3F2211300221A700023C7F82831F8
:10C98400D7F82C3107F59872A2F2291212781A708E
:10C99400D7F828310133C7F82831D7F82C3107F5F7
:10C9A4009872A2F5957212785A70D7F8283101332B
:10C9B400C7F82831D7F82C3107F59872A2F22B1258
:10C9C40012789A70D7F828310133C7F8283107F55F
:10C9D400887318220021184600F03AF80823A7F8B3
:10C9E40010313123A7F8123107F11003C7F81831B9
:10C9F400D7F82831C7F81C3107F10F03C7F82031E5
:10CA04000123C7F8243107F588730021184600F084
:10CA1400A9FA0346002B01DAFF2304E007F5987313
:10CA2400A3F221131B78184607F59A77BD4690BDEB
:10CA340080B584B000AFF860B9607A607A68B9688C
:10CA4400F86802F055FA034618461037BD4680BD13
:10CA540080B584B000AFF860B9607A607A68B9686C
:10CA6400F86802F019FA034618461037BD4680BD2F
:10CA740080B400AF00BFBD465DF8047B704780B44E
:10CA840000AF00BFBD465DF8047B704780B400AFC3
:10CA940000BFBD465DF8047B704780B400AF00BFA3
:10CAA400BD465DF8047B704780B400AF00BFBD464F
:10CAB4005DF8047B704780B400AF00BFBD465DF8ED
:10CAC400047B704780B400AF00BFBD465DF8047BB3
